{
  "_format": "hh-sol-artifact-1",
  "contractName": "BondCreditVault",
  "sourceName": "contracts/BondCreditVault.sol",
  "abi": [
    {
      "inputs": [
        {
          "internalType": "address",
          "name": "_usdc",
          "type": "address"
        }
      ],
      "stateMutability": "nonpayable",
      "type": "constructor"
    },
    {
      "anonymous": false,
      "inputs": [
        {
          "indexed": true,
          "internalType": "address",
          "name": "bridgeWallet",
          "type": "address"
        },
        {
          "indexed": false,
          "internalType": "uint256",
          "name": "amount",
          "type": "uint256"
        }
      ],
      "name": "BridgeTransferInitiated",
      "type": "event"
    },
    {
      "anonymous": false,
      "inputs": [
        {
          "indexed": true,
          "internalType": "address",
          "name": "user",
          "type": "address"
        },
        {
          "indexed": false,
          "internalType": "uint256",
          "name": "amount",
          "type": "uint256"
        }
      ],
      "name": "Deposited",
      "type": "event"
    },
    {
      "anonymous": false,
      "inputs": [
        {
          "indexed": true,
          "internalType": "address",
          "name": "previousOwner",
          "type": "address"
        },
        {
          "indexed": true,
          "internalType": "address",
          "name": "newOwner",
          "type": "address"
        }
      ],
      "name": "OwnershipTransferred",
      "type": "event"
    },
    {
      "anonymous": false,
      "inputs": [
        {
          "indexed": true,
          "internalType": "address",
          "name": "user",
          "type": "address"
        },
        {
          "indexed": false,
          "internalType": "uint256",
          "name": "amount",
          "type": "uint256"
        }
      ],
      "name": "Withdrawn",
      "type": "event"
    },
    {
      "inputs": [
        {
          "internalType": "address",
          "name": "",
          "type": "address"
        }
      ],
      "name": "balances",
      "outputs": [
        {
          "internalType": "uint256",
          "name": "",
          "type": "uint256"
        }
      ],
      "stateMutability": "view",
      "type": "function"
    },
    {
      "inputs": [
        {
          "internalType": "uint256",
          "name": "amount",
          "type": "uint256"
        }
      ],
      "name": "deposit",
      "outputs": [],
      "stateMutability": "nonpayable",
      "type": "function"
    },
    {
      "inputs": [
        {
          "internalType": "address",
          "name": "user",
          "type": "address"
        }
      ],
      "name": "getBalance",
      "outputs": [
        {
          "internalType": "uint256",
          "name": "",
          "type": "uint256"
        }
      ],
      "stateMutability": "view",
      "type": "function"
    },
    {
      "inputs": [],
      "name": "owner",
      "outputs": [
        {
          "internalType": "address",
          "name": "",
          "type": "address"
        }
      ],
      "stateMutability": "view",
      "type": "function"
    },
    {
      "inputs": [],
      "name": "renounceOwnership",
      "outputs": [],
      "stateMutability": "nonpayable",
      "type": "function"
    },
    {
      "inputs": [],
      "name": "totalDeposits",
      "outputs": [
        {
          "internalType": "uint256",
          "name": "",
          "type": "uint256"
        }
      ],
      "stateMutability": "view",
      "type": "function"
    },
    {
      "inputs": [
        {
          "internalType": "address",
          "name": "newOwner",
          "type": "address"
        }
      ],
      "name": "transferOwnership",
      "outputs": [],
      "stateMutability": "nonpayable",
      "type": "function"
    },
    {
      "inputs": [
        {
          "internalType": "address",
          "name": "bridgeWallet",
          "type": "address"
        },
        {
          "internalType": "uint256",
          "name": "amount",
          "type": "uint256"
        }
      ],
      "name": "transferToBridgeWallet",
      "outputs": [],
      "stateMutability": "nonpayable",
      "type": "function"
    },
    {
      "inputs": [],
      "name": "usdc",
      "outputs": [
        {
          "internalType": "contract IERC20",
          "name": "",
          "type": "address"
        }
      ],
      "stateMutability": "view",
      "type": "function"
    },
    {
      "inputs": [
        {
          "internalType": "uint256",
          "name": "amount",
          "type": "uint256"
        }
      ],
      "name": "withdraw",
      "outputs": [],
      "stateMutability": "nonpayable",
      "type": "function"
    }
  ],
  "bytecode": "0x60a060405234801561001057600080fd5b50604051610c43380380610c4383398101604081905261002f916100f3565b610038336100a3565b6001600160a01b0381166100925760405162461bcd60e51b815260206004820152601b60248201527f5553444320616464726573732063616e6e6f74206265207a65726f0000000000604482015260640160405180910390fd5b6001600160a01b0316608052610123565b600080546001600160a01b038381166001600160a01b0319831681178455604051919092169283917f8be0079c531659141344cd1fd0a4f28419497f9722a3daafe3b4186f6b6457e09190a35050565b60006020828403121561010557600080fd5b81516001600160a01b038116811461011c57600080fd5b9392505050565b608051610ae961015a60003960008181610103015281816102ad015281816104b5015281816105ba01526107580152610ae96000f3fe608060405234801561001057600080fd5b506004361061009e5760003560e01c80637d882097116100665780637d882097146101455780638da5cb5b1461014e578063b6b55f251461015f578063f2fde38b14610172578063f8b2cb4f1461018557600080fd5b806327e235e3146100a35780632e1a7d4d146100d65780633dc7c313146100eb5780633e413bee146100fe578063715018a61461013d575b600080fd5b6100c36100b13660046109d1565b60016020526000908152604090205481565b6040519081526020015b60405180910390f35b6100e96100e43660046109f3565b6101ae565b005b6100e96100f9366004610a0c565b6103a2565b6101257f000000000000000000000000000000000000000000000000000000000000000081565b6040516001600160a01b0390911681526020016100cd565b6100e96106cf565b6100c360025481565b6000546001600160a01b0316610125565b6100e961016d3660046109f3565b6106e3565b6100e96101803660046109d1565b610892565b6100c36101933660046109d1565b6001600160a01b031660009081526001602052604090205490565b600081116102035760405162461bcd60e51b815260206004820152601b60248201527f576974686472617720616d6f756e74206d757374206265203e2030000000000060448201526064015b60405180910390fd5b336000908152600160205260409020548181101561025a5760405162461bcd60e51b8152602060048201526014602482015273496e73756666696369656e742062616c616e636560601b60448201526064016101fa565b6102648282610a4c565b3360009081526001602052604081209190915560028054849290610289908490610a4c565b909155505060405163a9059cbb60e01b8152336004820152602481018390526000907f00000000000000000000000000000000000000000000000000000000000000006001600160a01b03169063a9059cbb906044016020604051808303816000875af11580156102fe573d6000803e3d6000fd5b505050506040513d601f19601f820116820180604052508101906103229190610a65565b9050806103685760405162461bcd60e51b81526020600482015260146024820152731554d110c81d1c985b9cd9995c8819985a5b195960621b60448201526064016101fa565b60405183815233907f7084f5476618d8e60b11ef0d7d3f06914655adb8793e28ff7f018d4c76d505d59060200160405180910390a2505050565b6103aa61090b565b6001600160a01b0382166103f85760405162461bcd60e51b8152602060048201526015602482015274125b9d985b1a5908189c9a5919d9481dd85b1b195d605a1b60448201526064016101fa565b6000811161043d5760405162461bcd60e51b81526020600482015260126024820152710416d6f756e74206d757374206265203e20360741b60448201526064016101fa565b60025481111561049d5760405162461bcd60e51b815260206004820152602560248201527f496e73756666696369656e74207661756c74206163636f756e74696e672062616044820152646c616e636560d81b60648201526084016101fa565b6040516370a0823160e01b81523060048201526000907f00000000000000000000000000000000000000000000000000000000000000006001600160a01b0316906370a0823190602401602060405180830381865afa158015610504573d6000803e3d6000fd5b505050506040513d601f19601f820116820180604052508101906105289190610a87565b90508181101561057a5760405162461bcd60e51b815260206004820152601f60248201527f496e73756666696369656e74207661756c7420555344432062616c616e63650060448201526064016101fa565b816002600082825461058c9190610a4c565b909155505060405163a9059cbb60e01b81526001600160a01b038481166004830152602482018490526000917f00000000000000000000000000000000000000000000000000000000000000009091169063a9059cbb906044016020604051808303816000875af1158015610605573d6000803e3d6000fd5b505050506040513d601f19601f820116820180604052508101906106299190610a65565b9050806106865760405162461bcd60e51b815260206004820152602560248201527f55534443207472616e7366657220746f206272696467652077616c6c65742066604482015264185a5b195960da1b60648201526084016101fa565b836001600160a01b03167f89065d47033171ae464b79d16b51fece5593a0fe40764c474ab82f2987d43596846040516106c191815260200190565b60405180910390a250505050565b6106d761090b565b6106e16000610965565b565b600081116107335760405162461bcd60e51b815260206004820152601a60248201527f4465706f73697420616d6f756e74206d757374206265203e203000000000000060448201526064016101fa565b6040516323b872dd60e01b8152336004820152306024820152604481018290526000907f00000000000000000000000000000000000000000000000000000000000000006001600160a01b0316906323b872dd906064016020604051808303816000875af11580156107a9573d6000803e3d6000fd5b505050506040513d601f19601f820116820180604052508101906107cd9190610a65565b90508061081c5760405162461bcd60e51b815260206004820152601860248201527f55534443207472616e7366657246726f6d206661696c6564000000000000000060448201526064016101fa565b336000908152600160205260408120805484929061083b908490610aa0565b9250508190555081600260008282546108549190610aa0565b909155505060405182815233907f2da466a7b24304f47e87fa2e1e5a81b9831ce54fec19055ce277ca2f39ba42c49060200160405180910390a25050565b61089a61090b565b6001600160a01b0381166108ff5760405162461bcd60e51b815260206004820152602660248201527f4f776e61626c653a206e6577206f776e657220697320746865207a65726f206160448201526564647265737360d01b60648201526084016101fa565b61090881610965565b50565b6000546001600160a01b031633146106e15760405162461bcd60e51b815260206004820181905260248201527f4f776e61626c653a2063616c6c6572206973206e6f7420746865206f776e657260448201526064016101fa565b600080546001600160a01b038381166001600160a01b0319831681178455604051919092169283917f8be0079c531659141344cd1fd0a4f28419497f9722a3daafe3b4186f6b6457e09190a35050565b80356001600160a01b03811681146109cc57600080fd5b919050565b6000602082840312156109e357600080fd5b6109ec826109b5565b9392505050565b600060208284031215610a0557600080fd5b5035919050565b60008060408385031215610a1f57600080fd5b610a28836109b5565b946020939093013593505050565b634e487b7160e01b600052601160045260246000fd5b81810381811115610a5f57610a5f610a36565b92915050565b600060208284031215610a7757600080fd5b815180151581146109ec57600080fd5b600060208284031215610a9957600080fd5b5051919050565b80820180821115610a5f57610a5f610a3656fea26469706673582212204a144ab6596c22a74455ebb740f4fb5f19fb93e92ae2992b7c5890a87683816164736f6c63430008140033",
  "linkReferences": {},
  "deployedLinkReferences": {}
}